{
  "contractName": "Carborundum",
  "abi": [
    {
      "anonymous": false,
      "inputs": [
        {
          "indexed": true,
          "internalType": "address",
          "name": "previousOwner",
          "type": "address"
        },
        {
          "indexed": true,
          "internalType": "address",
          "name": "newOwner",
          "type": "address"
        }
      ],
      "name": "OwnershipTransferred",
      "type": "event"
    },
    {
      "inputs": [],
      "name": "memberCount",
      "outputs": [
        {
          "internalType": "uint256",
          "name": "",
          "type": "uint256"
        }
      ],
      "stateMutability": "view",
      "type": "function",
      "constant": true
    },
    {
      "inputs": [
        {
          "internalType": "address",
          "name": "",
          "type": "address"
        }
      ],
      "name": "memberScores",
      "outputs": [
        {
          "internalType": "uint256",
          "name": "",
          "type": "uint256"
        }
      ],
      "stateMutability": "view",
      "type": "function",
      "constant": true
    },
    {
      "inputs": [
        {
          "internalType": "uint256",
          "name": "",
          "type": "uint256"
        }
      ],
      "name": "members",
      "outputs": [
        {
          "internalType": "address",
          "name": "",
          "type": "address"
        }
      ],
      "stateMutability": "view",
      "type": "function",
      "constant": true
    },
    {
      "inputs": [],
      "name": "organizationAddress",
      "outputs": [
        {
          "internalType": "address payable",
          "name": "",
          "type": "address"
        }
      ],
      "stateMutability": "view",
      "type": "function",
      "constant": true
    },
    {
      "inputs": [],
      "name": "owner",
      "outputs": [
        {
          "internalType": "address",
          "name": "",
          "type": "address"
        }
      ],
      "stateMutability": "view",
      "type": "function",
      "constant": true
    },
    {
      "inputs": [],
      "name": "renounceOwnership",
      "outputs": [],
      "stateMutability": "nonpayable",
      "type": "function"
    },
    {
      "inputs": [
        {
          "internalType": "address",
          "name": "newOwner",
          "type": "address"
        }
      ],
      "name": "transferOwnership",
      "outputs": [],
      "stateMutability": "nonpayable",
      "type": "function"
    },
    {
      "inputs": [
        {
          "internalType": "address",
          "name": "_Address",
          "type": "address"
        }
      ],
      "name": "isMember",
      "outputs": [
        {
          "internalType": "bool",
          "name": "",
          "type": "bool"
        }
      ],
      "stateMutability": "view",
      "type": "function",
      "constant": true
    },
    {
      "inputs": [
        {
          "internalType": "address",
          "name": "_orgAddress",
          "type": "address"
        }
      ],
      "name": "setOrgAddress",
      "outputs": [],
      "stateMutability": "nonpayable",
      "type": "function"
    },
    {
      "inputs": [
        {
          "internalType": "uint256",
          "name": "_score",
          "type": "uint256"
        }
      ],
      "name": "donate",
      "outputs": [],
      "stateMutability": "payable",
      "type": "function",
      "payable": true
    }
  ],
  "bytecode": "0x608060405234801561001057600080fd5b5061002d61002261003260201b60201c565b61003a60201b60201c565b6100fe565b600033905090565b60008060009054906101000a900473ffffffffffffffffffffffffffffffffffffffff169050816000806101000a81548173ffffffffffffffffffffffffffffffffffffffff021916908373ffffffffffffffffffffffffffffffffffffffff1602179055508173ffffffffffffffffffffffffffffffffffffffff168173ffffffffffffffffffffffffffffffffffffffff167f8be0079c531659141344cd1fd0a4f28419497f9722a3daafe3b4186f6b6457e060405160405180910390a35050565b610c388061010d6000396000f3fe6080604052600436106100915760003560e01c8063a230c52411610059578063a230c5241461016b578063b21d0190146101a8578063eea90ee1146101d1578063f14faf6f1461020e578063f2fde38b1461022a57610091565b80630db703681461009657806311aee380146100c15780635daf08ca146100ec578063715018a6146101295780638da5cb5b14610140575b600080fd5b3480156100a257600080fd5b506100ab610253565b6040516100b89190610992565b60405180910390f35b3480156100cd57600080fd5b506100d6610279565b6040516100e39190610a08565b60405180910390f35b3480156100f857600080fd5b50610113600480360381019061010e91906108cc565b61027f565b6040516101209190610977565b60405180910390f35b34801561013557600080fd5b5061013e6102be565b005b34801561014c57600080fd5b50610155610346565b6040516101629190610977565b60405180910390f35b34801561017757600080fd5b50610192600480360381019061018d91906108a3565b61036f565b60405161019f91906109ad565b60405180910390f35b3480156101b457600080fd5b506101cf60048036038101906101ca91906108a3565b61043b565b005b3480156101dd57600080fd5b506101f860048036038101906101f391906108a3565b6104fb565b6040516102059190610a08565b60405180910390f35b610228600480360381019061022391906108cc565b610513565b005b34801561023657600080fd5b50610251600480360381019061024c91906108a3565b6106b5565b005b600260009054906101000a900473ffffffffffffffffffffffffffffffffffffffff1681565b60015481565b6003818154811061028f57600080fd5b906000526020600020016000915054906101000a900473ffffffffffffffffffffffffffffffffffffffff1681565b6102c66107ad565b73ffffffffffffffffffffffffffffffffffffffff166102e4610346565b73ffffffffffffffffffffffffffffffffffffffff161461033a576040517f08c379a0000000000000000000000000000000000000000000000000000000008152600401610331906109e8565b60405180910390fd5b61034460006107b5565b565b60008060009054906101000a900473ffffffffffffffffffffffffffffffffffffffff16905090565b6000806000905060005b600154811015610431578373ffffffffffffffffffffffffffffffffffffffff16600382815481106103d4577f4e487b7100000000000000000000000000000000000000000000000000000000600052603260045260246000fd5b9060005260206000200160009054906101000a900473ffffffffffffffffffffffffffffffffffffffff1673ffffffffffffffffffffffffffffffffffffffff16141561042057600191505b8061042a90610ae4565b9050610379565b5080915050919050565b6104436107ad565b73ffffffffffffffffffffffffffffffffffffffff16610461610346565b73ffffffffffffffffffffffffffffffffffffffff16146104b7576040517f08c379a00000000000000000000000000000000000000000000000000000000081526004016104ae906109e8565b60405180910390fd5b80600260006101000a81548173ffffffffffffffffffffffffffffffffffffffff021916908373ffffffffffffffffffffffffffffffffffffffff16021790555050565b60046020528060005260406000206000915090505481565b61051c3361036f565b61059c576003339080600181540180825580915050600190039060005260206000200160009091909190916101000a81548173ffffffffffffffffffffffffffffffffffffffff021916908373ffffffffffffffffffffffffffffffffffffffff1602179055506001600081548092919061059690610ae4565b91905055505b80600460003373ffffffffffffffffffffffffffffffffffffffff1673ffffffffffffffffffffffffffffffffffffffff16815260200190815260200160002060008282546105eb9190610a34565b92505081905550600073ffffffffffffffffffffffffffffffffffffffff16600260009054906101000a900473ffffffffffffffffffffffffffffffffffffffff1673ffffffffffffffffffffffffffffffffffffffff16146106b257600260009054906101000a900473ffffffffffffffffffffffffffffffffffffffff1673ffffffffffffffffffffffffffffffffffffffff166108fc349081150290604051600060405180830381858888f193505050501580156106b0573d6000803e3d6000fd5b505b50565b6106bd6107ad565b73ffffffffffffffffffffffffffffffffffffffff166106db610346565b73ffffffffffffffffffffffffffffffffffffffff1614610731576040517f08c379a0000000000000000000000000000000000000000000000000000000008152600401610728906109e8565b60405180910390fd5b600073ffffffffffffffffffffffffffffffffffffffff168173ffffffffffffffffffffffffffffffffffffffff1614156107a1576040517f08c379a0000000000000000000000000000000000000000000000000000000008152600401610798906109c8565b60405180910390fd5b6107aa816107b5565b50565b600033905090565b60008060009054906101000a900473ffffffffffffffffffffffffffffffffffffffff169050816000806101000a81548173ffffffffffffffffffffffffffffffffffffffff021916908373ffffffffffffffffffffffffffffffffffffffff1602179055508173ffffffffffffffffffffffffffffffffffffffff168173ffffffffffffffffffffffffffffffffffffffff167f8be0079c531659141344cd1fd0a4f28419497f9722a3daafe3b4186f6b6457e060405160405180910390a35050565b60008135905061088881610bd4565b92915050565b60008135905061089d81610beb565b92915050565b6000602082840312156108b557600080fd5b60006108c384828501610879565b91505092915050565b6000602082840312156108de57600080fd5b60006108ec8482850161088e565b91505092915050565b6108fe81610a9c565b82525050565b61090d81610a8a565b82525050565b61091c81610aae565b82525050565b600061092f602683610a23565b915061093a82610b5c565b604082019050919050565b6000610952602083610a23565b915061095d82610bab565b602082019050919050565b61097181610ada565b82525050565b600060208201905061098c6000830184610904565b92915050565b60006020820190506109a760008301846108f5565b92915050565b60006020820190506109c26000830184610913565b92915050565b600060208201905081810360008301526109e181610922565b9050919050565b60006020820190508181036000830152610a0181610945565b9050919050565b6000602082019050610a1d6000830184610968565b92915050565b600082825260208201905092915050565b6000610a3f82610ada565b9150610a4a83610ada565b9250827fffffffffffffffffffffffffffffffffffffffffffffffffffffffffffffffff03821115610a7f57610a7e610b2d565b5b828201905092915050565b6000610a9582610aba565b9050919050565b6000610aa782610aba565b9050919050565b60008115159050919050565b600073ffffffffffffffffffffffffffffffffffffffff82169050919050565b6000819050919050565b6000610aef82610ada565b91507fffffffffffffffffffffffffffffffffffffffffffffffffffffffffffffffff821415610b2257610b21610b2d565b5b600182019050919050565b7f4e487b7100000000000000000000000000000000000000000000000000000000600052601160045260246000fd5b7f4f776e61626c653a206e6577206f776e657220697320746865207a65726f206160008201527f6464726573730000000000000000000000000000000000000000000000000000602082015250565b7f4f776e61626c653a2063616c6c6572206973206e6f7420746865206f776e6572600082015250565b610bdd81610a8a565b8114610be857600080fd5b50565b610bf481610ada565b8114610bff57600080fd5b5056fea26469706673582212208d6d5c32684b0790def29f27a663ed772b2400a6c87768d1f5133a64adfa3d3e64736f6c63430008010033",
  "immutableReferences": {},
  "source": "// SPDX-License-Identifier: MIT\r\npragma solidity ^0.8.0;\r\n\r\nimport \"@openzeppelin/contracts/access/Ownable.sol\";\r\n\r\ncontract Carborundum is Ownable {\r\n\r\n    uint public memberCount;\r\n    address payable public organizationAddress;\r\n    address[] public members;\r\n    mapping(address => uint) public memberScores;\r\n\r\n    function isMember(address _Address) public view returns (bool) {\r\n        bool ismember = false;\r\n        for (uint i = 0; i < memberCount; ++i) {\r\n            if (members[i] == _Address) {\r\n                ismember = true;\r\n            }\r\n        }\r\n        return ismember;\r\n    }\r\n\r\n    function setOrgAddress(address _orgAddress) external onlyOwner {\r\n        organizationAddress = payable(_orgAddress);\r\n    }\r\n\r\n    function donate(uint _score) external payable {\r\n        if (!isMember(msg.sender)) {\r\n            members.push(msg.sender);\r\n            memberCount++;\r\n        }\r\n        memberScores[msg.sender] += _score;\r\n        if (organizationAddress != address(0)) {\r\n            organizationAddress.transfer(msg.value);\r\n        }\r\n    }\r\n}",
  "sourcePath": "D:/Hackathons/MLH/Hacknado/project/contracts/Carborundum.sol",
  "compiler": {
    "name": "solc",
    "version": "0.8.1+commit.df193b15.Emscripten.clang"
  },
  "schemaVersion": "3.4.1",
  "updatedAt": "2022-01-30T09:06:44.748Z",
  "networkType": "ethereum",
  "devdoc": {
    "kind": "dev",
    "methods": {
      "owner()": {
        "details": "Returns the address of the current owner."
      },
      "renounceOwnership()": {
        "details": "Leaves the contract without owner. It will not be possible to call `onlyOwner` functions anymore. Can only be called by the current owner. NOTE: Renouncing ownership will leave the contract without an owner, thereby removing any functionality that is only available to the owner."
      },
      "transferOwnership(address)": {
        "details": "Transfers ownership of the contract to a new account (`newOwner`). Can only be called by the current owner."
      }
    },
    "version": 1
  },
  "userdoc": {
    "kind": "user",
    "methods": {},
    "version": 1
  }
}